:020000040800F2
:10000000C80700209D010008A5010008A7010008FD
:10001000A9010008AB010008AD01000800000000C4
:10002000000000000000000000000000AF01000818
:10003000B101000800000000B3010008B50100088C
:10004000B7010008B7010008B7010008B7010008B0
:10005000B7010008B7010008B7010008B7010008A0
:10006000B7010008B7010008B7010008B701000890
:10007000B7010008B7010008B7010008B701000880
:10008000B7010008B7010008B7010008B701000870
:10009000B7010008B7010008B7010008CF19000830
:1000A000B7010008B7010008B7010008B701000850
:1000B00039250008B7010008B7010008B70100089A
:1000C000B7010008B7010008B7010008B701000830
:1000D000B70100088527000891280008B70100082B
:1000E000B7010008B7010008B7010008B701000810
:1000F000B7010008B7010008B7010008B701000800
:10010000B7010008B7010008B7010008B7010008EF
:100110009D260008B7010008B7010008B7010008D4
:10012000B7010008B7010008B7010008B7010008CF
:10013000B7010008B7010008B7010008B7010008BF
:10014000B7010008B7010008B7010008B7010008AF
:10015000B7010008B7010008B7010008B70100089F
:10016000B7010008B7010008B7010008B70100088F
:10017000B7010008B7010008B7010008B70100087F
:10018000B7010008B7010008DFF80CD000F0F4FA5E
:1001900000480047E9400008C8070020064880479B
:1001A00006480047FEE7FEE7FEE7FEE7FEE7FEE75C
:1001B000FEE7FEE7FEE7FEE7D1240008890100081C
:1001C0002DE9FE4F804681EA0300C00F0C460090E7
:1001D00021F0004123F00045B8EB0200A94105D20F
:1001E0004046214690461C460B46024623F00040FE
:1001F000104347D0270DC7F30A00C3F30A510290FA
:10020000401A019040286BDAC3F3130040F4801BBE
:100210000098924620B10023D2EB030A63EB0B0B4C
:1002200001985946C0F14002504600F0E1F90646F7
:100230000D4650465946019A00F0F9F910EB0800B6
:100240006141002487EA115284EAE7731A4340D0DF
:10025000009A62B3019A012A4FEA075215DC001B8B
:1002600061EB02014FF0004202EA0752CDE9004281
:10027000001C41F5801132462B4600F02EFA03B0E7
:10028000BDE8F08F40462146F9E7001B61EB020113
:10029000001C41F5801300185B412018A2F50017DF
:1002A00047EB030140EAD570B6196D4111E06D08C6
:1002B0004FEA360645EAC0754FEA0752001B61EB6C
:1002C0000201001C41F5801149084FEA3000001975
:1002D000514132462B4603B0BDE8F04F00F0F0B973
:1002E0000098012240000023D0EB020263EBE07390
:1002F000009821464FEAE074B8EB000061EB04017E
:10030000E9E783F000435BE781F0004158E72DE91E
:10031000FE4F81EA030404F0004421F00041009400
:100320004FF0000B23F0004350EA01045ED052EA84
:1003300003045BD0C3F30A54C1F30A552C44A4F25E
:10034000F3340194A0FB0254C1F3130141F4801172
:10035000C3F3130343F4801301FB024400FB034E79
:10036000840A970A44EA815447EA8357A4FB076842
:1003700002958D0A05FB07854FEA932C04FB0C546C
:100380002705029D4FEA065847EA1637B5EB0805E0
:100390006EEB070C870E920E47EA811742EA831232
:1003A000A7FB0201B6EB0B0164EB00042B0D43EA43
:1003B0000C335E1844EB1C50DA465146E7FB020151
:1003C000C5F313044FEA0B3343EA14534FEA0432E4
:1003D000019C43EA0603A4F10C040294009CCDE9BD
:1003E00000B400F07AF903B0BDE8F08F00200146B8
:1003F000F9E72DE9F04D81EA030404F0004B21F008
:10040000004514464FF0000A23F0004150EA05026F
:1004100020D054EA01021DD0C5F30A570246C5F3A5
:100420001303C1F31300C1F30A5640F4801543F4DB
:100430008013A7EB0608101BD64608F2FD3873EBB5
:10044000050002D308F1010801E092185B41B8F100
:10045000000F03DA00200146BDE8F08D00204FF4C4
:100460008011064684460EE0171B73EB050705D383
:10047000121B63EB050306434CEA010C49084FEAE3
:10048000300092185B4150EA0107EDD152EA0300B7
:1004900012D082EA040083EA0501084305D0101B4C
:1004A000AB4106D20122002306E000224FF00043B8
:1004B00002E06FF0010253101AEB06004CEB0851FA
:1004C00010EB0A0041EB0B01BDE8F04D00F0F8B86D
:1004D0000EB5C10F80EAE0700844CA07002140F25F
:1004E00033438DE80E000A460B4600F0F6F803B0E1
:1004F00000BD70B5C1F30A5201F000450024C1F3FC
:10050000130140F2FF3341F480119A4201DA0020D6
:1005100070BD40F233439A42A2F2334203DC5242AE
:1005200000F075F800E090402C43F1D0404270BDDF
:1005300000F0004230F000400AD0C10D01F56071BA
:10054000C0F3160042EA0151C20840071143704748
:1005500000200146704701F0004330B421F0004113
:1005600050EA010206D00A0DA2F56072C1F3130130
:10057000002A02DC30BC00207047440F44EAC1046A
:10058000C100E01830BC00EBC25000F062B82DE9A9
:10059000F05F0546002092469B4688460646814607
:1005A00040241BE0284641464746224600F02FF8EB
:1005B00053465A46C01A914110D311461846224656
:1005C00000F016F82D1A67EB01084F46224601206D
:1005D000002100F00DF817EB00094E41201EA4F198
:1005E0000104DFDC484631462A464346BDE8F09F19
:1005F000202A04DB203A00FA02F1002070479140E3
:10060000C2F1200320FA03F3194390407047202AD7
:1006100004DB203A21FA02F00021704721FA02F3AC
:10062000D040C2F120029140084319467047202A69
:1006300006DBCB17203A41FA02F043EAE07306E00A
:1006400041FA02F3D040C2F120029140084319461A
:1006500070470029A8BF7047401C490008BF20F020
:100660000100704710B4B0FA80FC00FA0CF050EAB8
:10067000010404BF10BC704749B1CCF1200421FA39
:1006800004F411FA0CF118BF012121430843A3EB34
:100690000C01CB1D4FEA00614FEA102042BF002041
:1006A00010BC704700EBC35010440029A4BF10BC1D
:1006B0007047401C490008BF20F0010010BC704783
:1006C00010B5002B08DA401C41F1000192185B4183
:1006D0001A4301D120F0010010BD2DE9F04D9246E2
:1006E0009B4611B1B1FA81F202E0B0FA80F22032F9
:1006F0009046FFF77DFF04460F4640EA0A0041EAB4
:100700000B0153465A46084313D0114653EA0100E1
:1007100019D0C8F140025046FFF779FF05460E4652
:10072000504659464246FFF763FF084305D0012073
:1007300004E020463946BDE8F08D0020054346EA36
:10074000E0762C4337430A986305E40AA0EB0800DF
:100750000022FD0A44EA47540A3002D5002001462F
:10076000E9E7010510196941DDE90845001969410A
:10077000BDE8F04DA4E70000064C074D06E0E06838
:1007800040F0010394E8070098471034AC42F6D3D8
:10079000FFF7FEFC70470008904700082DE9F04D78
:1007A00000231A461B1A8A4103DB00200146BDE8DC
:1007B000F08DC1F30A52C1F3130141F480154FF0DB
:1007C000000BD10702D100186D41521E00270446CC
:1007D00040F2FF11384601EB620A3E46804602466F
:1007E00000204FF48011FFF712FFC2197141BB18AE
:1007F00046EB0100B4EB030C75EB000C04D3E41AD8
:1008000065EB000517460E46241908F101006D41FD
:1008100080463428E3DDF91946EB0600091BA841A0
:1008200003D24FF0FF32134601E0002213461BEBC8
:10083000070046EB0A51BDE8F04DFFF741BF70B528
:100840008C1810F8015B15F0070301D110F8013B7B
:100850002A1106D110F8012B03E010F8016B01F802
:10086000016B5B1EF9D12B0705D40023521E0DD45A
:1008700001F8013BFAE710F8013BCB1A921C03E0A8
:1008800013F8015B01F8015B521EF9D5A142D8D3E0
:10089000002070BD70B52DED048B04460D4600267A
:1008A000002004E0215C3144CEB2411CC8B2691E74
:1008B0008142F7DC601910F8010CB04202D0BDECA7
:1008C000048B70BD2078AA2802D16078AF2800D0B0
:1008D000F5E7A078022805D12079012802D1D14975
:1008E00008724872A07810287ED12179090209B2D5
:1008F000627941EA0200FFF7EBFD41EC190B9FED35
:10090000CA0B53EC102BFFF702FD41EC180BFFF75D
:1009100022FEC7490860A179090209B2E27941EAD9
:100920000200FFF7D5FD41EC190B9FEDBF0B53EC17
:10093000102BFFF7ECFC41EC180BFFF70CFEBD4948
:100940000860217A090209B2627A41EA0200FFF7DF
:10095000BFFD41EC190B9FEDB40B53EC102BFFF7CF
:10096000D6FC41EC180BFFF7F6FDB3490860A17AFD
:10097000090209B2E27A41EA0200FFF7A9FD41EC5F
:10098000190B9FEDA90B53EC102BFFF7C0FC41ECAA
:10099000180BFFF7E0FDA9490860217B090209B2A5
:1009A000627B41EA0200FFF793FD41EC190B9FEDDA
:1009B0009E0B53EC102BFFF7AAFC41EC180BFFF732
:1009C000CAFD9F490860A17B090209B2E27B41EAA6
:1009D0000200FFF77DFD41EC190B9FED930B53ECEB
:1009E000102BFFF794FC00E04BE041EC180BFFF7F5
:1009F000B2FD94490860217C090209B2627C41EA97
:100A00000200FFF765FD41EC190B9FED870B53ECDE
:100A1000102BFFF77CFC41EC180BFFF79CFD8A497B
:100A20000860A17C090209B2E27C41EA0200FFF7FA
:100A30004FFD41EC190B9FED7C0B53EC102BFFF796
:100A400066FC41EC180BFFF786FD80490860217DAC
:100A5000090209B2627D41EA0200FFF739FD41EC6B
:100A6000190B9FED710B53EC102BFFF750FC41EC71
:100A7000180BFFF770FD76490860A078314600F04A
:100A80006FF9A07811287CD12179090209B2627925
:100A900041EA0200FFF71CFD41EC190B9FED620BD0
:100AA00053EC102BFFF733FC41EC180BFFF753FD11
:100AB00068490860A179090209B2E27941EA0200B5
:100AC000FFF706FD41EC190B9FED570B53EC102B74
:100AD000FFF71DFC41EC180BFFF73DFD5E49086078
:100AE000217A090209B2627A41EA0200FFF7F0FCBA
:100AF00041EC190B9FED4C0B53EC102BFFF707FC4F
:100B000041EC180BFFF727FD54490860A17A090250
:100B100009B2E27A41EA0200FFF7DAFC41EC190B74
:100B20009FED410B53EC102BFFF7F1FB41EC180B41
:100B3000FFF711FD4A490860217B090209B2627B77
:100B400041EA0200FFF7C4FC41EC190B9FED360BA4
:100B500053EC102BFFF7DBFB41EC180BFFF7FBFC12
:100B600040490860A17B090209B2E27B41EA020028
:100B7000FFF7AEFC41EC190B9FED2B0B53EC102B48
:100B800000E04DE0FFF7C3FB41EC180BFFF7E3FC7F
:100B900035490860217C090209B2627C41EA020001
:100BA000FFF796FC41EC190B9FED1F0B53EC102B3C
:100BB000FFF7ADFB41EC180BFFF7CDFC2B490860AC
:100BC000A17C090209B2E27C41EA0200FFF780FC45
:100BD00041EC190B9FED140B53EC102BFFF797FB17
:100BE00041EC180BFFF7B7FC21490860217D090291
:100BF00009B2627D41EA0200FFF76AFC41EC190B81
:100C00009FED090B53EC102BFFF781FB41EC180B08
:100C1000FFF7A1FC17490860A078314600F0A0F862
:100C200000BF4CE634030020FCA9F1D24D62503FD6
:100C300074000020780000207C000020800000204C
:100C400084000020880000208C00002090000020FC
:100C500094000020EC000020F0000020F4000020B0
:100C6000F8000020FC00002000010020040100200A
:100C7000080100200C01002010B50446344800781B
:100C800038B9AA2C05D101203149087031480470C7
:100C90005DE02F480078012807D1AF2C05D1022054
:100CA0002B4908702B48447051E0294800780228ED
:100CB00007D1F12C05DA03202549087025488470F6
:100CC00045E02348007803280CD1322C0ADA0420AE
:100CD0001F4908701F48C4701F48047000201F4936
:100CE000087034E01A480078042819D11A480078AE
:100CF000002815DD18480078401E1749087017486D
:100D0000007816490978491C144A1170001D1149D0
:100D10000C5411480078D0B905200D49087016E030
:100D20000B48007805280FD10020094908700B48AE
:100D30000078001D07490C5408480078401DC1B2D6
:100D40000448FFF7A7FD02E000200149087010BD2C
:100D500052010020750300205001002051010020A5
:100D600070B504460D46AA200D4908704870EF2062
:100D700088700220C8700846047145710026002062
:100D800005E00749095C3144CEB2411CC8B20628CF
:100D9000F7DB03488671072100F004F870BD0000FE
:100DA0004303002070B504460D462946204601F055
:100DB000C5FE70BD7FB50024AA222146641C4748A9
:100DC00042542146641C425406222146641C42546B
:100DD00000222146641C42549DF801202146641CD7
:100DE00042549DF800202146641C42549DF8052081
:100DF0002146641C42549DF804202046611CCCB25C
:100E000036490A549DF809202046611CCCB233496A
:100E10000A549DF808202046611CCCB22F490A5480
:100E20009DF80D202046611CCCB22C490A549DF837
:100E30000C202146601CC4B2284842549DF8212051
:100E40002046611CCCB225490A549DF8202020463A
:100E5000611CCCB221490A549DF825202046611C12
:100E6000CCB21E490A549DF824202046611CCCB205
:100E70001A490A549DF829202046611CCCB2174912
:100E80000A549DF828202046611CCCB213490A540C
:100E90009DF82D202046611CCCB210490A549DF8C3
:100EA0002C202046611CCCB20C490A54201FC8706B
:100EB0000025002005E00949095C2944CDB2411C08
:100EC000C8B2A042F7DB2046611CCCB203490D54E6
:100ED00021460248FFF766FF7FBD00004303002064
:100EE00070B52DED0A8B82B00546B0EE408AF0EE6B
:100EF000608AB0EE419AF0EE619AB0EE42AAF0EE4E
:100F000062AAB0EE43BAF0EE63BAB0EE44CA00246F
:100F1000AA222146641C7F4842542146641C425444
:100F200005F10F00C2B22146641C7A4842540022E7
:100F30002146641C42549FED780A28EE000ABDEE5B
:100F4000C00A10EE100A00B201909DF8052021465B
:100F5000641C704842549DF804202146641C42548D
:100F60009FED6D0A28EE800ABDEEC00A10EE100A51
:100F700000B201909DF805202146641C654842544A
:100F80009DF804202046611CCCB262490A549FEDB2
:100F9000620A29EE000ABDEEC00A10EE100A00B285
:100FA00001909DF805202046611CCCB259490A5495
:100FB0009DF804202046611CCCB256490A549FED8E
:100FC000560A29EE800ABDEEC00A10EE100A00B2E1
:100FD00001909DF805202046611CCCB24D490A5471
:100FE0009DF804202046611CCCB24A490A549FED6A
:100FF0004A0A2AEE000ABDEEC00A10EE100A00B23C
:1010000001909DF805202046611CCCB241490A544C
:101010009DF804202046611CCCB23E490A549FED45
:101020003E0A2AEE800ABDEEC00A10EE100A00B297
:1010300001909DF805202046611CCCB235490A5428
:101040009DF804202046611CCCB232490A549FED21
:10105000320A2BEE000ABDEEC00A10EE100A00B2F2
:1010600001909DF805202046611CCCB229490A5404
:101070009DF804202046611CCCB226490A549FEDFD
:10108000260A2BEE800ABDEEC00A10EE100A00B24E
:1010900001909DF805202046611CCCB21D490A54E0
:1010A0009DF804202046611CCCB21A490A549FEDD9
:1010B0001A0A2CEE000ABDEEC00A10EE100A00B2A9
:1010C00001909DF805202046611CCCB211490A54BC
:1010D0009DF804202046611CCCB20E490A54201F02
:1010E000C8700026002005E00A49095C3144CEB2F0
:1010F000411CC8B2A042F7DB2046611CCCB20549B6
:101100000E5421460348FFF74DFE02B0BDEC0A8B9A
:1011100070BD00004303002000007A442DE9F04137
:101120002DED048B82B0B0EE408AF0EE608AB0EE16
:10113000419A05460E46174600240095AA222146EC
:10114000641C4A4842542146641C425401222146F0
:10115000641C425400222146641C42549FED440A00
:1011600028EE000ABDEEC00A10EE100A00B201908F
:101170009DF805202146641C3C4842549DF80420FB
:101180002146641C42549FED3A0A28EE800ABDEEC7
:10119000C00A10EE100A00B201909DF80520214609
:1011A000641C324842549DF804202046611CCCB295
:1011B0002E490A549FED2E0A29EE000ABDEEC00A00
:1011C00010EE100A00B201909DF805202046611C27
:1011D000CCB226490A549DF804202046611CCCB2AA
:1011E00022490A549DF803202046611CCCB21F49B5
:1011F0000A549DF802202046611CCCB21B490A54B7
:101200009DF801202046611CCCB218490A549DF873
:1012100000202146601CC4B2144842542046611C80
:10122000CCB212490E542046611CCCB20F490F5467
:10123000201FC8704FF00008002006E00B49095C31
:10124000414401F0FF08411CC8B2A042F6DB204631
:10125000611CCCB2054901F8008021460348FFF724
:10126000A1FD02B0BDEC048BBDE8F081430300207A
:101270000000C8429C48D0ED000A9C48B0F900002C
:1012800000EE100AB8EEC00A30EEC00A984880EDB1
:10129000000A90ED000ADFED970AB4EEE00AF1EEE5
:1012A00010FA08DA90ED000ADFED930AB4EEE00AD6
:1012B000F1EE10FA03D80020904908700DE00120EB
:1012C0008E4908708E4890ED000A8948D0ED000ADA
:1012D00030EE200A8A4880ED000A894890ED000A25
:1012E000DFED880AB4EEE00AF1EE10FA03DD9FEDBF
:1012F000850A80ED000A824890ED000ADFED820A3F
:10130000B4EEE00AF1EE10FA03D29FED7F0A80ED11
:10131000000A7548D0ED000A7448B0F9000000EEEC
:10132000100AB8EEC00A30EEC00A7848D0ED000AC4
:1013300020EE200A764880ED000A7648D0ED000ABB
:101340006E48007800EE100AB8EE400A20EE800ADF
:101350006B48D0ED000A20EE200A6F4880ED000AAD
:101360006248B0F9000000EE100AB8EEC00A6B48FF
:10137000D0ED000A30EE600A6948D0ED000A20EE98
:10138000200A684880ED000A6748D0ED000A6748E7
:10139000B0F9000000EE100AB8EEC00A30EEC00A44
:1013A0006348D0ED000A20EE200A624880ED000A72
:1013B0006148D0ED000A6148007800EE100AB8EEEE
:1013C000400A20EE800A5E48D0ED000A20EE200A96
:1013D0005C4880ED000A5548B0F9000000EE100AA4
:1013E000B8EEC00A5848D0ED000A30EE600A5748FF
:1013F000D0ED000A20EE200A554880ED000A55483D
:10140000D0ED000A5448B0F9000000EE100AB8EE22
:10141000C00A30EEC00A5148D0ED000A20EE200A82
:101420004F4880ED000A4F48D0ED000A4E48007842
:1014300000EE100AB8EE400A20EE800A4B48D0EDCC
:10144000000A20EE200A4A4880ED000A4248B0F91E
:10145000000000EE100AB8EEC00A4648D0ED000ABF
:1014600030EE600A4448D0ED000A20EE200A4348DE
:1014700080ED000A264890ED000A2748D0ED000ACA
:1014800030EE200A2748D0ED000A30EE200A3C4812
:1014900080ED000A9FED3B0A3B4880ED000A9FED7E
:1014A000390A3A4880ED000A2048B0F9000000EE01
:1014B000100AB8EEC00A194880ED000A0B48B0F9CE
:1014C000000000EE100AB8EEC00A1F4880ED000AC6
:1014D0002148B0F9000000EE100AB8EEC00A254815
:1014E00080ED000A704700005C00002034000020FE
:1014F000B400002000001643000016C319010020AC
:10150000A400002000007A4400007AC4EC0000200F
:10151000BC000020F0000020C00000209C00002043
:10152000F4000020C40000206C00002032000020E5
:10153000F8000020C8000020FC0000201A01002054
:10154000A8000020CC00002098000020000100200E
:10155000D000002070000020360000200401002090
:10156000D4000020080100201B010020AC00002056
:10157000D8000020A00000200C010020DC0000208A
:10158000E000002000000000E4000020E80000204F
:1015900015484088401C00B213494880084680889E
:1015A000401C00B288800846C088401C00B2C88039
:1015B00008460089401C00B2088108464089401C4A
:1015C00000B2488108468089401C00B288810846E4
:1015D0000078012804D108464078401C487002E099
:1015E0000120014908707047A401002030B503466E
:1015F000002403E013F8015B2819C4B20800A1F12C
:101600000105E9B2F6D1944201D1012030BD00209C
:10161000FCE7000010B513480078134909788842A8
:101620000BD16420114948800F208880C88000F0C9
:10163000B5FB00200E49087012E00B4800780949FC
:10164000087000F0DDFB00200949087009480078A7
:1016500000F0010020B100F0DDFB0120044908701A
:1016600010BD00001801002014000020160000200A
:1016700028000020150000207FB50124584800688C
:10168000401C5749086042F21071884202DD012077
:101690005349086052480068312190FBF1F201FB88
:1016A000120010B901204F4908704D4800683B21D5
:1016B00090FBF1F201FB120010B901204949C870FA
:1016C00048480078A8B10020464908704649096892
:1016D000642201FB02F045490A782146444B93ED10
:1016E000001A444BD3ED000A434B93ED000AFFF779
:1016F00015FD3C48C07850B300203A49C8700090AE
:10170000019002903D4D0390B5F90650643D05EB04
:1017100085054FF6FF7606EA4503384DB5F90450C6
:10172000643D05EB850506EA4502344DB5F90250E6
:10173000643D05EB850506EA4501304DB5F90050DD
:10174000643D05EB850506EA4500FFF733FB2548B8
:10175000007A00B3002023490872294890ED004A1E
:101760002848D0ED003A284890ED003A2748D0EDBF
:10177000002A274890ED002A2648D0ED001A264876
:1017800090ED001A2548D0ED000A254890ED000A9A
:101790000120FFF7A5FB1348407A00B30020114950
:1017A0004872204890ED004A1F48D0ED003A1F488B
:1017B00090ED003A1E48D0ED002A1E4890ED002A18
:1017C0001D48D0ED001A1D4890ED001A1C48D0EDC0
:1017D000000A1C4890ED000A0220FFF781FB7FBD44
:1017E0004C010020340300202000002028000020AD
:1017F0008C01002088010020840100202A000020A4
:1018000094000020900000208C0000208800002020
:1018100084000020800000207C0000207800002050
:10182000740000200C0100200801002004010020A9
:1018300000010020FC000020F8000020F40000203F
:10184000F0000020EC0000203248007800F0010099
:1018500078BB3148007860BB9FED300A304880ED9E
:10186000000A9FED2E0A2F4880ED000A2E4890EDC9
:10187000000A2E4880ED000A9FED280A2C4880EDD2
:10188000000A9FED260A2B4880ED000A9FED230AEF
:10189000294880ED000A9FED210A284880ED000AC2
:1018A0009FED1E0A264880ED000A642025494880E5
:1018B0007047FFE7234840886E2828DC9FED170A11
:1018C000174880ED000A9FED150A164880ED000AC2
:1018D000154890ED000A154880ED000A9FED0F0AAB
:1018E000134880ED000A9FED0D0A124880ED000AB2
:1018F0009FED0A0A104880ED000A9FED080A0F4884
:1019000080ED000A9FED050A0D4880ED000A00BF3A
:10191000CEE7000015000020280000200000000095
:10192000680000206C0000208C0100206400002072
:10193000E0000020E4000020E8000020A8000020D3
:10194000A4000020160000200A488088C0F10F0083
:1019500000EE100AB8EEC00A074880ED000A0548FC
:10196000C0880F3800EE100AB8EEC00A034880EDB8
:10197000000A7047160000205C0000206000002074
:10198000704710B5FFF778FE10BD704710B5FFF730
:1019900071FCFFF7D9FFFFF757FF00F089FC10BD7E
:1019A00010B5FFF737FE0448007800F0EFFA0A217F
:1019B000024801F0D1F810BD28000020B20100203B
:1019C000704710B502F032FB00F0ACF810BD10B556
:1019D000802000F00BF810B1802000F001F810BD5D
:1019E0000149086070470000143C01400146002096
:1019F000034A12680A400AB1012000E00020704743
:101A0000143C0140F0B50A4600210023002400BF29
:101A10003DE0012505FA01F3156805EA03049C423F
:101A200034D105684F000326BE40B54305601579E3
:101A30004E00B5400668354305601579012D02D08A
:101A40001579022D16D185684F000326BE40B54397
:101A5000856055794E00B540866835438560456898
:101A600001268E40B5434560456896798E40B6B2F2
:101A700035434560C5684F000326BE40B543C56089
:101A8000D5794E00B540C6683543C560491C10295C
:101A9000BFD3F0BDF0B5002300244D07ED0E02FAD0
:101AA00005F3CE1000F1200555F826504E07F70E2D
:101AB0000F26BE40B543CF1000F1200646F8275050
:101AC000CE1000F1200555F8265045EA0304CE104B
:101AD00000F1200545F82640F0BD01837047000065
:101AE00010B50F48008840F040000D4908800120E3
:101AF00001F0E8FF0A480838006800F0800008B1EB
:101B0000002400E001240648801C008840F04000CA
:101B10000349891C0880012001F0D4FF204610BD34
:101B20001804024010B52DED048B01F0E9FF1F49A8
:101B3000B1F90000FEF7CCFC41EC190B9FED1C0B3A
:101B400053EC102BFEF7E3FB41EC180BFEF7D1FC36
:101B500000B2194908801549B1F90200FEF7B8FC36
:101B600041EC190B9FED120B53EC102BFEF7CFFB42
:101B700041EC180BFEF7BDFC00B2104908800B4980
:101B8000B1F90400FEF7A4FC41EC190B9FED080B22
:101B900053EC102BFEF7BBFB41EC180BFEF7A9FC36
:101BA00000B207490880BDEC048B10BD6401002021
:101BB0001F401F401F409F3F320000203400002084
:101BC000360000202DE9F0410646884614461D46A1
:101BD00000F01AFC002141EA4601C8B200F05CF8AE
:101BE0000746012F26D1404600F056F80746012F40
:101BF00020D100F009FC012101EB4601C8B200F040
:101C00004BF80746012F15D10DE0012C04D001201F
:101C100000F014F8287003E0002000F00FF828709E
:101C20006D1C601EC4B2002CEFD100F025FC00201A
:101C3000BDE8F08100F020FC0120F9E770B5064610
:101C4000002400251FE01348008840F0400011499F
:101C50000880012001F036FF6006040E0D480838A8
:101C6000006800F0800008B144F001040948801CBD
:101C7000008840F040000749891C0880022001F0DC
:101C800021FF681CC5B2082DDDDB304600F056FA96
:101C9000204670BD1804024070B50446002532E0AD
:101CA0002548008840F0400023490880012001F0C9
:101CB00009FF04F0800058B11F48801E008840F0E2
:101CC00080001D49891E0880012001F0FBFE08E00C
:101CD0001948008840F0800017490880012001F071
:101CE000F1FE6006040E012001F0ECFE1248801E99
:101CF000008840F040001049891E0880022001F051
:101D0000E1FE681CC5B2082DCADB0B48008840F014
:101D1000400009490880012001F0D4FE0648801ED9
:101D2000008840F080000449891E0880012001F0ED
:101D3000C9FEFFF7D5FE70BD1A0402402DE9F04739
:101D400006460F469046994600F05EFB002141EAA8
:101D50004601C8B2FFF7A0FF0546012D1AD138464B
:101D6000FFF79AFF0546012D14D100240CE019F865
:101D70000400FFF791FF054625B900F07DFB012027
:101D8000BDE8F087601CC4B24445F0DB00F074FB92
:101D90000020F5E700F070FB0120F1E70220034985
:101DA00048830420088308200883704700100240FD
:101DB0001CB50121102000F01DF901208DF8040050
:101DC00000208DF8060001208DF805000F200090FE
:101DD00069460A48FFF716FE01210848FFF77DFE15
:101DE00002210648FFF779FE04210448FFF775FE3B
:101DF00008210248FFF771FE1CBD000000100240E0
:101E00000220034908830420088308204883704780
:101E10000010024002200349088304204883082060
:101E2000088370470010024010B52348007801284D
:101E300040D1FFF7A6FD2048B0F90200022804DBDC
:101E400000201D494880FFF7A1FD1B48B0F90400A0
:101E5000052804DB002018498880FFF7B2FD1648EA
:101E6000B0F906000A2804DB00201349C880FFF7F8
:101E700087FD1148B0F90800142804DB00200E4942
:101E80000881FFF782FD0C48B0F90A00322804DB14
:101E9000002009494881FFF793FD0748B0F90C007D
:101EA000FA2804DB002004498881FFF779FD00202F
:101EB0000149087010BD0000A401002010B5C82819
:101EC00000DDC820C82900DDC821C82A00DDC822DD
:101ED000C82B00DDC823002800DA0020002900DA22
:101EE0000021002A00DA0022002B00DA0023034C34
:101EF0006363A263E163206410BD00000000014041
:101F000070B5002100230F22C4781CB3174C24683D
:101F100004F4E064C4F5E064C4F30721C1F10404EF
:101F2000E3B20A4144789C40E1B2847814402143F2
:101F30000C07210E0E4C05786155047804F01F053E
:101F40000124AC4005786D11AD0005F1E025C5F820
:101F5000004109E0047804F01F050124AC40054D60
:101F60000678761145F8264070BD00000CED00E0C3
:101F700000E400E080E100E002490143024A116010
:101F8000704700000000FA050CED00E014490978E4
:101F9000C82903DB0021124A117004E010490978B6
:101FA000491C0F4A1170AA210E4A1170114648703F
:101FB0000D49097891700C494978D1700B4909781D
:101FC00011710A4949785171094909789171084993
:101FD0004978D171024909781172F1215172704723
:101FE0001E000020B2010020840100208801002092
:101FF0008C01002029B1064A12680243044B1A6082
:1020000004E0034A12688243014B1A6070470000E3
:102010003038024029B1064A12680243044B1A6064
:1020200004E0034A12688243014B1A6070470000C3
:102030004038024029B1064A12680243044B1A6034
:1020400004E0034A12688243014B1A6070470000A3
:1020500044380240F0B50021002200240225002669
:102060000223324F3F6807F00C0121B1042905D04B
:10207000082937D105E02E4F076036E02D4F076065
:1020800033E02A4F3F1F3F68C7F38056274F3F1F5B
:102090003F6807F03F036EB1264FB7FBF3F7DFF859
:1020A0008CC0ACF1040CDCF800C0CCF3881C07FB3E
:1020B0000CF40CE01E4FB7FBF3F7DFF870C0ACF187
:1020C000040CDCF800C0CCF3881C07FB0CF4174FA1
:1020D0003F1F3F68C7F301477F1C7D00B4FBF5F746
:1020E000076002E0124F076000BF00BF0F4F3F685C
:1020F00007F0F0010909104F7A5C0768D740476084
:102100000A4F3F6807F4E051890A0B4F7A5C476831
:10211000D7408760054F3F6807F46041490B064F81
:102120007A5C4768D740C760F0BD000008380240BD
:102130000024F40000127A000000002010B50446CC
:102140001F48008840F040001D490880012001F030
:10215000B9FC012C09D11A48008840F080001849C8
:102160000880012001F0AEFC0AE01548801E0088BE
:1021700040F080001249891E0880012001F0A2FC75
:102180000F48801E008840F040000D49891E0880DD
:10219000022001F097FC0A48008840F040000849FE
:1021A0000880012001F08EFC0548801E008840F068
:1021B00080000349891E0880012001F083FC10BDC6
:1021C0001A0402400CB500200190009034480068C9
:1021D00040F480303249086000BF3148006800F4A4
:1021E000003000900198401C0190009818B90198A7
:1021F000B0F5A04FF1D12A48006800F4003010B1CA
:102200000120009001E0002000900098012846D1B4
:1022100023484030006840F0805021494031086038
:102220002048006840F440401E4908601C480830BF
:1022300000681B49083108600846006840F4004007
:1022400008600846006840F4A05008601648091F5E
:102250000860081F006840F08070091F086000BF18
:102260000F48006800F000700028F9D040F20570B7
:102270000E4908600A480830006820F00300084949
:10228000083108600846006840F00200086000BF9E
:1022900003480830006800F00C000828F8D10CBD95
:1022A000003802400070004008544007003C0240E3
:1022B00070B54E48408800EE100AB8EE400A4C480F
:1022C000D0ED000A30EE200A4A48D0ED000A30EE88
:1022D000600A4948D0ED000A30EE200ABDEEC00A7F
:1022E00010EE100A00B2454908804048408800EED0
:1022F000100AB8EE400A3E48D0ED000A30EE200A3F
:102300003C48D0ED000A30EE200A3B48D0ED000AF0
:1023100030EE600ABDEEC00A10EE100A00B248802E
:102320003248408800EE100AB8EE400A3048D0ED3E
:10233000000A30EE600A2F48D0ED000A30EE200A85
:102340002D48D0ED000A30EE200ABDEEC00A10EE96
:10235000100A00B288802548408800EE100AB8EEC6
:10236000400A2348D0ED000A30EE600A2148D0ED43
:10237000000A30EE600A2048D0ED000A30EE600A14
:10238000BDEEC00A10EE100A00B2C88000241EE0A4
:102390001A4830F914001A49B1F90010884206DBD6
:1023A0001748B0F90000154921F814000DE0134852
:1023B00030F914001349B1F90010884205DC1148C6
:1023C000B0F900000D4921F81400601CC4B2042CBF
:1023D000DEDB0A4DB5F90630B5F90420B5F9021077
:1023E000B5F90000FFF76AFD70BD0000160000207F
:1023F000E4000020E0000020E80000202A00002087
:102400001C0100201E01002010B500F0C7FB194878
:10241000008840F0400017490880012001F052FB7D
:102420001448801E008840F080001249891E0880F0
:10243000012001F047FB0F48801E008840F040005B
:102440000C49891E0880012001F03CFB09480088E6
:1024500040F0800007490880012001F033FB054867
:10246000008840F0400003490880012001F02AFB69
:1024700010BD00001A04024010B51448008840F056
:10248000400012490880012001F01CFB0F48008821
:1024900040F080000D490880012001F013FB0B483B
:1024A000801E008840F040000849891E08800120F5
:1024B00001F008FB0548801E008840F080000349B9
:1024C000891E0880012001F0FDFA10BD1A040240A7
:1024D00010B51548006840F47000134908601348AF
:1024E000006840F001001149086000200F490831E0
:1024F00008600E4800680E4908400C4908600D4805
:10250000091D0860081F006820F48020091F08606A
:10251000002006490C310860FFF754FE4FF00060C0
:1025200001498039086010BD88ED00E000380240A4
:10253000FFFFF6FE1030002410B50121880700F0DF
:1025400020F8012809D10648007800B910BDFFF72E
:102550001FF80121880700F005F800BFF6E700002A
:1025600010000020CA430282704721B1028842F065
:102570000102028004E002884FF6FE731A400280D6
:10258000704730B50246002000230024158A05EA72
:102590000103958905EA010413B10CB1012000E0A3
:1025A000002030BD1AB183890B43838102E0838907
:1025B0008B4383817047000000220288184B9842A9
:1025C0000ED0184B98420BD0B0F1804F08D0164B6C
:1025D000984205D0154B984202D0154B984204D131
:1025E0004FF68F731A404B881A43124B984207D00C
:1025F000114B984204D04FF6FF431A400B891A43FF
:1026000002804B68C3620B880385054B984202D059
:10261000044B984201D18B7A038601238382704751
:102620000000014000040140000400400008004098
:10263000000C004000100040001400401FB50121B4
:102640000846FFF7E7FC01218807FFF78BFF05200D
:10265000029044F29F10ADF804000020ADF80C0089
:10266000ADF8060001A94FF08040FFF7A5FF01215A
:102670008807FFF77AFF4FF4A060FFF77DFC1C206E
:102680008DF8000001208DF801008DF802008DF812
:1026900003006846FFF734FC1FBD000010B540F290
:1026A0002551094800F04AF968B1074800F000FADE
:1026B000C4B2214605A000F091FA40F2255102482B
:1026C00000F014F900BF10BD004C00402578200038
:1026D00000B585B000F038F801211020FFF7AAFC02
:1026E0004FF4E13001900020ADF80800ADF80A0089
:1026F000ADF80C00ADF810000C20ADF80E0001A9EB
:10270000104800F06BF9012240F225510D4800F00D
:102710003FF901210B4800F0F8F84FF4A060FFF7F3
:102720002BFC25208DF8000001208DF801000020F1
:102730008DF8020001208DF803006846FFF7E0FBEA
:1027400005B000BD001001401CB501210846FFF78F
:1027500051FC4FF4C060009002208DF804008DF809
:10276000050069460648FFF74DF90722092104488C
:10277000FFF790F907220A210148FFF78BF91CBDEA
:102780000000024010B540F22551094800F0D6F88B
:1027900060B140F22551064800F0A8F8044800F066
:1027A00087F9C4B22046FEF767FA00BF10BD0000EB
:1027B0000010014010B504468021074800F0B1F830
:1027C0002146054800F079F900BF8021024800F059
:1027D000A8F80028F9D010BD0010014000B585B060
:1027E00000F038F801214804FFF714FC4FF4E13001
:1027F00001900020ADF80800ADF80A00ADF80C001B
:10280000ADF810000C20ADF80E0001A9104800F042
:10281000E5F8012240F225510D4800F0B9F80121F8
:102820000B4800F072F84FF4A060FFF7A5FB2620DC
:102830008DF8000000208DF801008DF802000120C5
:102840008DF803006846FFF75BFB05B000BD000094
:10285000004400401CB501210820FFF7CBFB60209D
:10286000009002208DF804008DF8050069460748A5
:10287000FFF7C8F8072205210448FFF70BF90722E4
:1028800006210248FFF706F91CBD0000000C0240BB
:1028900010B50CE040F22551094800F027F808482F
:1028A00000F006F9C4B2204601F0C6FB00BF40F2BA
:1028B0002551034800F042F80028EBD110BD00007C
:1028C0000044004010B504468021074800F029F874
:1028D0002146054800F0F1F800BF8021024800F0D1
:1028E00020F80028F9D010BD0044004010B50022A7
:1028F000002340F66A14A14200D100BF0A1201244D
:102900009440A3B2DC43048010BD21B1828942F41B
:102910000052828104E082894DF6FF731A40828161
:10292000704702460020B1F5007F00D100BF138838
:102930000B400BB1012000E00020704770B502464B
:10294000002400230025002040F66A16B14200D181
:1029500000BFC1F3421501F01F03012606FA03F37D
:10296000012D02D19689334006E0022D02D1168A4C
:10297000334001E0968A33400C12012606FA04F433
:102980001688344013B10CB1012000E0002070BD66
:10299000F0B50346002400260025002040F66A1703
:1029A000B94200D100BF1846C1F3421401F01F061E
:1029B000012707FA06F5012C01D10C3004E0022CA6
:1029C00001D1103000E014301AB107682F430760BE
:1029D00002E00768AF430760F0BD00002DE9FF4744
:1029E00005460E460024A14600BFA046B08900B1AE
:1029F00000BF2C8A24F44054F08804432C82AC8914
:102A000041F20C608443B0883189084371890843DE
:102A10000443AC81AC8A24F44074B0890443AC8292
:102A20006846FFF717FB2048854202D01F488542C1
:102A300002D1DDF80C9001E0DDF80890A88900F4DF
:102A4000004040B109EBC90000EB091031684900B2
:102A5000B0FBF1F707E009EBC90000EB09103168A2
:102A60008900B0FBF1F76420B7FBF0F00401200906
:102A7000642101FB1078A88900F4004040B13220A5
:102A800000EBC800B0FBF1F000F00700044308E0E1
:102A9000322000EB08106421B0FBF1F000F00F00D1
:102AA00004432C81BDE8FF87001001400014014061
:102AB00001468888C0F308007047C1F3080282808D
:102AC000704700001948007800F0010000B3174873
:102AD00080781649C97840EA0120154908801348D2
:102AE00000791249497940EA0120114948800F488C
:102AF00080790E49C97940EA01200D4988800B4848
:102B0000007A0A49497A40EA01200949C88008E068
:102B10000648007800F0080018B1044840780549DC
:102B200008700248807A04490870704798010020B4
:102B300016000020150000201400002070B5054686
:102B40000E46002400BF04E0285DFFF733FE601C42
:102B5000C4B2B442F8DB70BD70B505460E46002421
:102B600000BF04E0285DFFF7ADFE601CC4B2B442B4
:102B7000F8DB70BD10B5FFF71BF9FFF7A9FDFFF7F4
:102B80002DFEFFF75BFD012003490870012211466D
:102B90008007FFF707FD10BD1000002010B513E0FF
:102BA0000D48008840F040000B490880032000F0E9
:102BB00089FF0948801E008840F040000649891EB0
:102BC0000880032000F07EFF03480A38006800F008
:102BD00080000028E4D010BD1A0402400FB4054B59
:102BE00010B503A9044A029800F0E4FC10BC5DF89B
:102BF00014FB0000054000089001002003B4019878
:102C00004100009850EAC12018BF04204A0D18BFA7
:102C100040F0010040F2FF72B2EB515F08BF40F09C
:102C20000200012808BF052002B070470000000024
:102C300070B5C1482DED020B2DED0E8B82B0119DAC
:102C400025F000449FEDBEDB9FEDBFEB844240DBEF
:102C5000A4F140511098A1F17F6108430ED0BC4807
:102C6000844202DC27D1109828B39DED100B53EC61
:102C7000102B51EC100BFDF7A3FA27E09DED100B84
:102C800053EC1D2B51EC100BFDF741FB9DED100B90
:102C900041EC180B53EC1E2B51EC100BFDF737FBDE
:102CA00053EC182BFDF78CFA41EC100B02B0BDEC85
:102CB0000E8B02B070BD012000F076FC9FEDA60BDC
:102CC00053EC102B51EC100BFDF793FB41EC100B68
:102CD000ECE7A3489FEDA48B844256DA9DED100BE0
:102CE000B4F1795F0ADA51EC100BFFF787FF042883
:102CF00008BF00F039FC9DED100BD7E753EC102B0B
:102D000051EC100BFDF703FB41EC190B9848062121
:102D1000B0EE490AF0EE690A784400F0A9FB53ECE2
:102D2000192B51EC100BFDF7F2FA41EC1A0B9148FC
:102D3000B0EE490AF0EE690A0421784400F098FBED
:102D400053EC192B51EC100BFDF7E1FA53EC182B57
:102D5000FDF736FA41EC100B51EC1A0B53EC102B2B
:102D6000FDF747FBCDE900019DED000B53EC102B67
:102D70009DED100B51EC100BFDF7C9FA9DED101BEA
:102D800053EC112BFDF71CFAA0E79DED100B51EC55
:102D9000100B01F02BF953EC182BFDF7B5FA9FED52
:102DA000760BCDE9000153EC102B9DED000B51EC9F
:102DB000100BFDF7ACFA41EC190B71480621B0EE8F
:102DC000490AF0EE690A784400F052FB53EC192BE3
:102DD00051EC100BFDF79BFA41EC1B0B6948B0EE70
:102DE000490AF0EE690A0421784400F041FB53ECF3
:102DF000192B51EC100BFDF78AFA53EC182BFDF749
:102E0000DFF941EC1C0B51EC190B01F0D7FB41EC45
:102E1000180B5D489FED5EABA04222DC53EC1C2BEF
:102E200051EC1B0BFDF7E5FACDE900019DED000B20
:102E300051EC180B53EC102BFDF769FA53EC182BDF
:102E4000FDF7BEF953EC1A2BFDF761FA53EC1D2B7D
:102E5000FDF757FA53EC1E2BFDF756FA41EC100B19
:102E60005FE08DED008B002000909DED000B51EC9C
:102E7000180B53EC102BFDF7A3F99DED000B41EC63
:102E80001E0B53EC102B51EC100BFDF740FA53ECDA
:102E9000192BFDF739FA53EC1E2BFDF7AAFA41EC7A
:102EA000190B53EC1C2B51EC1B0BFDF7A2FA41EC58
:102EB0001B0B53EC1A2B51EC190BFDF728FA53ECB2
:102EC0001D2BFDF721FA41EC190B53EC1A2B51EC99
:102ED000180BFDF71CFA53EC1B2BFDF718FA53ECFB
:102EE000192BFDF70EFA9DED000B41EC180B53EC7E
:102EF0001A2B51EC100BFDF70AFA9FED279B53ECB0
:102F0000192BFDF701FA41EC100B51EC180B53ECA7
:102F1000102BFDF7F6F953EC192BFDF7F5F941EC01
:102F2000100B002D3FF7C2AE51EC100B81F00041A9
:102F3000CCE60000000000000000F03F00000000B0
:102F4000075C143326A6913C182D4454FB21F93F0D
:102F50000000F07F00000000000000000000000002
:102F60000000E03F00000000000000000000F03F13
:102F70006419000072190000000000000000E03F2A
:102F8000B6180000C41800003333EF3F0000000003
:102F90000000000000000040182D4454FB21E93FD0
:102FA00070B59D482DED020B2DED068B079D25F08C
:102FB0000044A0421DDC9948844202DC0FD10698EF
:102FC00068B19DED060B53EC102B51EC100BFDF787
:102FD000F7F8BDEC068B02B041EC100B70BD002D74
:102FE000CCBF9FED8F0B9FED900BBDEC068B02B01D
:102FF00070BD8F48A04215DD8E48A042D8BF4FF06B
:10300000FF3458DD9DED060B51EC100BFFF7F6FD7C
:10301000042808BF00F0A8FA9DED060BBDEC068B56
:1030200002B070BD9DED060B51EC100B00F0DEFF01
:10303000CDE9060180489FED828BA0423CDD8248AD
:10304000A0421FDD00249FED82AB9DED060B53ECEB
:103050001A2B51EC100BFDF7B3F89DED060B41EC6C
:10306000190B53EC1A2B51EC100BFDF750F953ECE4
:10307000182BFDF746F953EC192BFDF7BAF9CDE9FA
:10308000060149E09DED060B012453EC182B51EC91
:10309000100BFDF795F89DED060B41EC190B53EC69
:1030A000182B51EC100BFDF72CF953EC192BFDF7F5
:1030B000A0F9CDE906012FE06748A0421FDD0224F8
:1030C0009FED679B9DED060B53EC192B51EC100BFC
:1030D000FDF71DF953EC182BFDF772F89DED060B6B
:1030E00041EC180B53EC192B51EC100BFDF709F9BF
:1030F00053EC182BFDF77DF9CDE906010CE09DEDB1
:10310000060B032453EC102B9FED570B51EC100BC7
:10311000FDF76FF9CDE906019DED060B53EC102B81
:1031200051EC100BFDF7F3F841EC180B53EC182B96
:10313000FDF7EDF841EC190B4D480621B0EE490AB8
:10314000F0EE690A784400F093F953EC182B51EC37
:10315000100BFDF7DCF841EC180B4648B0EE490ABD
:10316000F0EE690A0521784400F082F953EC192B3E
:1031700051EC100BFDF7CBF841EC100B51EC180B98
:1031800053EC102B002C0EDAFDF71AF89DED061B00
:1031900053EC112BFDF7BBF89DED061B53EC112BE7
:1031A000FDF7B2F835E0FDF70BF89DED061B53EC8B
:1031B000112BFDF7ACF841EC100B2F48784400EBD5
:1031C000C40090ED001B51EC100B53EC112BFDF7DC
:1031D00098F89DED061B53EC112BFDF792F841EC8E
:1031E000100B2648784400EBC40090ED001B51EC16
:1031F000100B53EC112BFDF787F841EC100B002D51
:10320000A2BFBDEC068B02B070BD51EC100B81F07B
:10321000004141EC100B01E7000010440000F07F7A
:10322000182D4454FB21F93F182D4454FB21F9BFBC
:103230000000DC3F0000203E0000F33F00000000E3
:10324000000000000000F03F0000E63F000000002A
:10325000000000000000004000800340000000006B
:10326000000000000000F83F000000000000F0BF78
:10327000F0150000A615000030150000E81400004D
:1032800070B56B4E2DED040B2DED028B82B0DDF889
:103290001CC0DDE905235C422CF000411C4341EADF
:1032A000D474049D22F00040B44205D86C422C43F3
:1032B00040EAD474B44210D99DED060B53EC102BA8
:1032C0009DED040B51EC100BFCF77AFF41EC100B59
:1032D00002B0BDEC028B04B070BDACF14054A4F15F
:1032E0007F641C430BD0022404EAAC7444EAD27419
:1032F00005439FED518B9FED522B07D010E09DEDC4
:10330000040B51EC100B00F082FB39E0002C14BFD1
:10331000012C9DED040BDBD0022C34D0032C37D0D4
:103320000B439FED491B9FED4A0B0AD0B14218D1C8
:10333000B04209D121F0804120F0804007910590F2
:103340000FE0002AC4DA10E0434B7B44002C08BF96
:1033500093ED000BBCD0012C0CD0022C13D0032C0D
:1033600016D0B04219D1002AB2DAB0EE410AF0EE1E
:10337000610AADE793ED000B51EC100B81F00041B9
:1033800041EC100BA4E7B0EE480AF0EE680A9FE7A4
:10339000B0EE420AF0EE620A9AE7401A00153C28A5
:1033A000C8BF8DED000B19DCBCF1000FBEBF10F1E2
:1033B0003C0F9FED2B0B8DED000B0FDB9DED060BF6
:1033C00053EC102B9DED040B51EC100BFDF711F895
:1033D00000F00CFE00F01BFBCDE90001002C08BF43
:1033E0009DED000B3FF474AF012C10D0022C9FED2B
:1033F0001E0B53EC102B9DED000B51EC100B0DD060
:10340000FCF77FFF53EC182BFCF77BFFB8E7019824
:1034100080F0004001909DED000B59E7FCF771FF33
:1034200053EC182BFCF770FFAAE700000000000027
:103430000000F07F00000000182D4454FB210940DB
:10344000182D4454FB2109C0182D4454FB21F9BF09
:10345000182D4454FB21F93F1A140000000000000D
:103460000000000000000000075C143326A6A13C09
:1034700070B504462DED028B4D1E00EBC500B0EE7D
:10348000408AF0EE608A90ED000B35F0060017D010
:1034900053EC182B51EC100BFCF739FF41EC100BDF
:1034A0006D1E04EBC50090ED001B51EC100B53ECAE
:1034B000112BFCF785FE41EC100B35F00600E7D12F
:1034C000022D36D0042D1CD0062D1CBFBDEC028B66
:1034D00070BD53EC182B51EC100BFCF718FF94ED5A
:1034E0000A1B53EC112BFCF76BFE53EC182BFCF76B
:1034F0000EFF94ED081B53EC112BFCF761FE41EC21
:10350000100B53EC182B51EC100BFCF700FF94ED53
:10351000061B53EC112BFCF753FE53EC182BFCF756
:10352000F6FE94ED040B53EC102BFCF749FE41EC36
:10353000100B53EC182B51EC100BFCF7E8FE94ED3C
:10354000021B53EC112BFCF73BFE53EC182BFCF742
:10355000DEFE94ED001B53EC112BFCF731FEBDECAD
:10356000028B41EC100B70BD9FED050B10B553ECB9
:10357000102B51EC100BFCF7CAFE41EC100B10BDE8
:10358000000000000000001002E008C8121F08C17F
:10359000002AFAD170477047002001E001C1121FD4
:1035A000002AFBD170470000014908607047000005
:1035B000940100202DE9FF4F8DB00F4605460026EF
:1035C00006E025280BD0DDE90F1290476D1C761C14
:1035D00028780028F5D111B03046BDE8F08F0024DE
:1035E000A246A1460122EA4900E0044315F8013F42
:1035F000203B02FA03F00842F7D128782A2810D09D
:103600006FF02F022878A0F13001092914D80AEBB5
:103610008A0102EB410144F0020400EB010A6D1C37
:10362000F0E701CF5FEA000A03D544F40054CAF181
:10363000000A44F002046D1C28782E2817D115F8D2
:10364000010F44F004042A280ED06FF02F022878CE
:10365000A0F1300109290AD809EB890102EB4101E7
:1036600000EB01096D1CF2E757F8049B6D1C2878EC
:103670006C280FD006DC4C2817D068280DD06A289B
:1036800014D104E0742810D07A280FD10DE044F44E
:1036900000140AE044F4801401E044F44014697812
:1036A000814202D104F580146D1C6D1C2A786E2AAB
:1036B0001FD00CDC632A31D004DC002A8BD0582ABE
:1036C00011D19FE0642A68D0692A0CD165E0732A81
:1036D0002ED004DC6F2A73D0702A04D197E0752AAB
:1036E0006FD0782A6ED01046DDE90F129047761C15
:1036F0004CE1C4F30250022806D0032809D0042864
:1037000001CF09D0066041E101CFF117C0E90061A6
:103710003CE101CF068039E1067037E117F8040B70
:103720008DF8000000208DF80100EB46012003E039
:1037300057F804BB4FF0FF3061074FF0000102D48F
:103740000DE008F10101884649450FDA8045F8DBB4
:103750001BF808100029F4D108E008F1010188469F
:103760008142FADB1BF808100029F6D1DDE90F23AE
:10377000AAEB08008146214600F032F9304400EB04
:10378000080604E0DDE90F121BF8010B9047B8F1C1
:103790000108F7D221464846F3E00A21C4F3025358
:1037A0004FF0000B0891022B04D001CFC117032B5F
:1037B00009D00AE0FF1D27F00707F7E8020108E03B
:1037C0002EE01DE01EE000B2C117042B01D140B273
:1037D000C117002907DA4FF0000CD0EB0C006CEB9E
:1037E00001012D2302E0230504D52B238DF824307D
:1037F000012303E0E30701D02023F7E7984656E0D2
:103800000A210EE010204FF0000B08900CE0102170
:103810004FF0000B44F004044FF00809089103E056
:1038200008214FF0000B0891C4F30253022B04D07F
:1038300001CF0021032B06D006E0FF1D27F007076C
:10384000F7E8020103E080B2042B00D1C0B24FF0D0
:10385000000823072BD5702A07D0DDF820C08CF094
:10386000100C5CEA0B0C05D00EE040238DF82430E0
:10387000012308E050EA010306D030238DF82430FC
:103880008DF8252002239846DDF820C08CF0080C26
:103890005CEA0B0C0BD150EA010301D1630706D59A
:1038A00030238DF824304FF00108A9F10109582A7E
:1038B00004D038A20B9208AA0A920BE03AA2F9E7C8
:1038C0005B46089AFCF763FE0B9B9B5C0A9A521EB0
:1038D0000A92137050EA0102F2D10A98ADEB00008F
:1038E00000F1200B600702D524F4803401E04FF092
:1038F0000109D94502DDA9EB0B0000E0002000EB37
:103900000B0141440890AAEB010AE00306D4DDE96B
:103910000F232146504600F063F806444FF000099B
:1039200008E009A911F80900DDE90F12904709F133
:103930000109761CC145F4DBE0030CD5DDE90F235A
:103940002146504600F04CF8064404E0DDE90F1231
:1039500030209047761C0899481E08900029F5DC15
:1039600008E00A980A990078491C0A91DDE90F12CB
:103970009047761CBBF10001ABF1010BF1DC214655
:103980005046DDE90F2300F019F806446D1C1FE6D0
:103990000928010030313233343536373839616225
:1039A00063646566000000003031323334353637E9
:1039B0003839414243444546000000002DE9F041BA
:1039C000044600251E461746880404D405E03946FF
:1039D0002020B0476D1C641EF9D52846BDE8F08153
:1039E0002DE9F041044600251E469046C80301D546
:1039F000302700E02027880404D505E041463846FA
:103A0000B0476D1C641EF9D52846BDE8F08110B59D
:103A100041EC100BFFF7C4FA51EC100B10BD000085
:103A20002DE9F0410446E07800F0C006E07800F0AF
:103A30003F05607800F0010098B1EF102846E917C3
:103A400005EB5171C910A5EBC101491C01F0FF083C
:103A50000B48006820B10A48414602683846904742
:103A600000BF607800F0080030B10548406818B128
:103A7000B011034A516888470020BDE8F08100007A
:103A8000240300200146C1EBC10202EB42024FF4C5
:103A90007A735A434FF0E0235A6100229A6101225F
:103AA0001A6100BF4FF0E022106900F001021AB164
:103AB00000F48032002AF5D000224FF0E0235A6152
:103AC0009A6170470146C1EBC10202EB42024FF01E
:103AD000E0235A6100229A6101221A6100BF4FF06F
:103AE000E022106900F001021AB100F48032002ACD
:103AF000F5D000224FF0E0235A619A617047000030
:103B000000B52DED088B83B0AE48C07800287DD07D
:103B1000AC4840780028FAD0AB48AC49AC4BAD4A31
:103B2000CDE90010AC49AD4800F06EF920B101209C
:103B300003B0BDEC088B00BDA348007810B900208D
:103B4000A049C870A148008800F4807000287DD08A
:103B5000A04890ED000AB8EEC00ADFEDA10A80EEA1
:103B6000201AA04880ED001A9A4890ED010AB8EE9C
:103B7000C00ADFED9B0A80EE201A9B4880ED001AF8
:103B8000944890ED020AB8EEC00ADFED950A80EE87
:103B9000201A964880ED001A8E4890ED030AB8EE80
:103BA000C00ADFED8F0A80EE201A914880ED001ADE
:103BB0008D4890ED000AF8EE000A20EE200A8C48AD
:103BC000D0ED000A20EE200A8648D0ED000AB0EEC3
:103BD000001A60EE810A854890ED001A00EE810A15
:103BE00010EE101A0846FCF7A3FC41EC1A0BB0EEDD
:103BF0004A0AF0EE6A0AFFF71BF8B0EE409AF0EEC0
:103C0000609A9FED7C0B53EC102B00E0C1E051EC6F
:103C1000190BFCF77CFB41EC180BFCF79CFC77497B
:103C20000860714890ED000AF8EE000A20EE200AC4
:103C3000D0ED000A20EE200A6C48D0ED000AB0EE6C
:103C4000001A60EE810A90ED001A00E09FE000EE9D
:103C5000C10AF7EE000A30EE200A10EE101A0846EC
:103C6000FCF766FC41EC1A0B604890ED000AF0EEA0
:103C7000000A20EE200A5E48D0ED000A20EE200A5D
:103C80005848D0ED000AB0EE001A60EE810A56489E
:103C900090ED001A00EE810A10EE101A0846FCF7AB
:103CA00047FC41EC1B0BB0EE4A1AF0EE6A1AB0EE7C
:103CB0004B0AF0EE6B0AFFF7E3FAB0EE409AF0EE33
:103CC000609A9FED4C0B53EC102B51EC190BFCF749
:103CD0001EFB41EC180BFCF73EFC494908604148CB
:103CE00090ED000A20EE000A3F48D0ED000A90ED6A
:103CF000001A00EE810A3D48D0ED000A90ED001A4E
:103D000000EEC10A3A48D0ED000A90ED001A00EE2C
:103D1000C10A10EE101A0846FCF70AFC41EC1A0B17
:103D2000314890ED000A3148D0ED000A20EE200A1B
:103D30002C48D0ED000A2E4890ED001A00EE810AC2
:103D4000F0EE000A20EE200A10EE101A0846FCF7EA
:103D5000EFFB41EC1B0BB0EE4A1AF0EE6A1AB0EE24
:103D60004B0AF0EE6B0AFFF78BFAB0EE409AF0EEDA
:103D7000609A9FED200B53EC102B51EC190BFCF7C4
:103D8000C6FA41EC180BFCF7E6FB1E490860002060
:103D9000CEE60C48C07890B101A802AB0C4A0E499F
:103DA00000900E4800F0A6F908B10120C0E69DF889
:103DB000040010B900200349C8700020B8E600BF15
:103DC0000120B5E6A8030020720100207001002048
:103DD00060010020B80300206A0100206401002077
:103DE0000000804E74010020780100207C0100203A
:103DF000800100206666666666A64C40840100204D
:103E0000880100208C0100202DE9F04F8DB007467D
:103E1000884615469946DDE9166B0024002030805F
:103E20006B49887B5A4605A900F060FA18B1601EFC
:103E30000DB0BDE8F08F6648807A00F014000028CD
:103E400067D09DF8140000069DF8151040EA014067
:103E50009DF8161040EA01209DF8171008432860CD
:103E60009DF8180000069DF8191040EA01409DF8E1
:103E70001A1040EA01209DF81B10084368609DF865
:103E80001C0000069DF81D1040EA01409DF81E1020
:103E900040EA01209DF81F100843A8609DF820000B
:103EA00000069DF8211040EA01409DF8221040EAEA
:103EB00001209DF823100843E86004F11000C4B20B
:103EC000286800140190686800140290A868001423
:103ED0000390E8680014049001984043029901FBA4
:103EE0000100039901FB0100049901FB010ABAF1E9
:103EF000706F02DBBAF1885F05DD00F057FA002031
:103F00003080401E94E7B6F9000040F480703080A5
:103F100000BF2F48807A00F0400020B305A9601C44
:103F2000085C095D40EA012000B2A8F8000005A97C
:103F3000E01C095C05AAA01C105C41EA002000B24C
:103F4000A8F8020005A9601D095C201D105C41EA6B
:103F5000002000B2A8F80400A01DC4B2B6F9000009
:103F600040F0080030801A48408900F4C07008B35F
:103F700005A9601C085C095D40EA012000B2388098
:103F800005A9E01C095C05AAA01C105C41EA002000
:103F900000B2788005A9601D095C201D105C41EA13
:103FA000002000B2B880A01DC4B2B6F9000040F0F5
:103FB000700030800648807A00F0030018B105A92F
:103FC0000819FFF72DFD484600F02EF800202FE7D6
:103FD0002403002010B503E010F8013B01F8013B79
:103FE0001300A2F10104E2B2F6D110BD82B0CDE916
:103FF000000121F0004001909DED000B02B051EC5A
:10400000100B704770B504460D46E1B20548FEF747
:1040100054FD00BF80210348FEF783FC0028F9D03F
:10402000204670BD0010014070470000012001498A
:10403000C8707047A803002030B50446082C01D092
:10404000012C02D101202249087021480078002863
:104050003CD0204801780078401C1E4A10701E4851
:104060004454104600780C2830DB1B48C27A0B21E0
:10407000FDF7BCFA68B1002016490870FEF722FD72
:104080000020134908700120144948830220088346
:104090001CE0134800681E2190FBF1F201FB1200A6
:1040A00000EB40000F4901EB80050C2229460A482D
:1040B000FFF790FF0A480068401C0949086000F0BB
:1040C00059FA0220054948830120088330BD0000C9
:1040D000250000202400002098010020001002404C
:1040E00020000020BC010020FEF744FD01E0FDF7A8
:1040F0009BFEFCE72DE9FE4F0746884692461D468B
:10410000DDF830B000260024774890F8240010B184
:10411000601EBDE8FE8F002028707348807A10B9B9
:104120004FF0FF30F5E77048007C10B94FF0FF30DA
:10413000EFE76D48007C00F0400008B1B01CC6B24B
:104140006948007C00F0200008B1B01CC6B2664887
:10415000007C00F0100008B1B01CC6B26248007CC0
:1041600000F0080008B1B01DC6B25F4A1268117BAA
:104170005D4A526810786B460222FDF723FD10B1AC
:104180004FF0FF30C5E79DF801009DF8001040EAB0
:104190000129B14501DA0020BBE753484068408857
:1041A000B9EB600F17DD504A1268D17C4E4A526855
:1041B00010786B460122FDF705FD10B14FF0FF307E
:1041C000A7E79DF8000000F0100020B100F0EEF825
:1041D0006FF001009DE75046FFF726FF424A126844
:1041E000517B414A526810786B463246FDF7EAFC33
:1041F00010B14FF0FF308CE799FBF6F0401E8BF8C2
:10420000000000202870B4422AD03748007C00F01B
:10421000080028B3601C1DF800001DF8041040EAD7
:10422000012000B2A8F80000E01C1DF80010A01C3E
:104230001DF8000041EA002000B2A8F80200601D4D
:104240001DF80010201D1DF8000041EA002000B2FA
:10425000A8F80400287840F008002870A01D84B257
:10426000B44213D02048007C00F0400070B1601CC4
:104270001DF800001DF8041040EA012000B238804B
:10428000287840F040002870A01C84B2B44213D0BB
:104290001548007C00F0200070B1601C1DF8000083
:1042A0001DF8041040EA012000B27880287840F020
:1042B00020002870A01C84B2B44213D00A48007CAD
:1042C00000F0100070B1601C1DF800001DF8041013
:1042D00040EA012000B2B880287840F01000287031
:1042E000A01C84B2002014E720010020F8B5044689
:1042F0000F4616462C4890F8240010B94FF0FF30B6
:10430000F8BD2948807A10B94FF0FF30F8E7264A07
:104310001268117B244A526810786B460222FDF71E
:1043200051FC10B14FF0FF30EAE79DF801009DF815
:10433000001040EA0125A54203DA00203070401E3B
:10434000DEE7194840684088B5EB600F17DD164A74
:104350001268D17C144A526810786B460122FDF72E
:1043600031FC10B14FF0FF30CAE79DF8000000F0BB
:10437000100020B100F01AF86FF00100C0E7E2B2BF
:10438000094B1B68597B084B5B6818783B46FDF767
:1043900019FC10B14FF0FF30B2E795FBF4F0401E6E
:1043A00030700020ACE700002001002008B5704804
:1043B000807A10B94FF0FF3008BD002000906C4AA1
:1043C0001268517C6A4A526810786B460122FDF7E8
:1043D000B5FC10B14FF0FF30EEE7654A1268517935
:1043E000634A526810786B460122FDF7A7FC10B1B2
:1043F0004FF0FF30E0E75E4A126811795C4A52687C
:1044000010786B460122FDF799FC10B14FF0FF3098
:10441000D2E7574890F82400002853D00C20009091
:10442000534A12681179524A526810786B46012239
:10443000FDF784FC10B14FF0FF30BDE73220FFF7ED
:1044400021FBC02000904A48807A00F0010020B192
:104450009DF8000040F020000090454A1268117954
:10446000434A526810786B460122FDF767FC10B191
:104470004FF0FF30A0E73E48407C10B10220009092
:1044800001E0002000903A4A1268517C384A526894
:1044900010786B460122FDF751FC10B14FF0FF3050
:1044A0008AE700200090324A12685179304A5268F7
:1044B00010786B460122FDF741FC002855D04FF0E3
:1044C000FF3079E704200090294A12681179284AC0
:1044D000526810786B460122FDF730FC10B14FF0A6
:1044E000FF3069E72248807C20B92148807A00F0BB
:1044F000010010B94020009001E0602000901C4AAB
:10450000126811791A4A526810786B460122FDF739
:1045100015FC10B14FF0FF304EE73220FFF7B2FA32
:104520001348407C10B10120009001E00020009071
:104530000F4A1268517C0E4A526810786B4601226D
:10454000FDF7FCFB10B14FF0FF3035E7084A126869
:104550005179074A52681078054B10330122FDF754
:10456000EDFB10B14FF0FF3026E7002024E70000FC
:10457000200100200F4807E0401C0278012A02D0E9
:104580000278082A00D107E00B4A1278521ED2B2F4
:10459000094B1A70002AEFD100BF064903E010F85A
:1045A000012B01F8012BA0F10C02024B9A42F6D12B
:1045B00070470000980100202400002000B52DED78
:1045C000048B83B041EC190BFCF7E8F841EC180BB5
:1045D00018EE100A18EE901A8DED008B002818BF07
:1045E0000120084320F00040C0F17F6000F1E0406E
:1045F000C00F14D019EE101A19EE900A8DED009B21
:10460000002918BF0121084320F00040C0F17F605D
:1046100000F1E040C00F04BF0120FEF7C5FF51ECE0
:10462000180B03B0BDEC048B00BD000075191A0C0B
:104630006A231B1C00001F207274433B4138393A27
:10464000006B6C376F06246D6E7068000004760096
:104650005401F7FD00010000830000000008000085
:104660000001001832000500000020410000D24285
:10467000295C0F3E9A99993E3333733F295C0F3E74
:10468000555555555555C53F7D6FEB0312D6D4BFD3
:104690005544880E55C1C93F3B8F68B52882A4BFD9
:1046A00088B20175E0EF493F09F7FD0DE13D023F9A
:1046B0004B2D8A1C273A03C0C88A599CE52A004022
:1046C00059018D1B6C06E6BF82922EB1C5B8B33F6F
:1046D0004FBB610567ACDD3F182D4454FB21E93F1A
:1046E0009BF681D20B73EF3F182D4454FB21F93F09
:1046F000E2652F227F2B7A3C075C143326A6813C8F
:10470000BDCBF07A8807703C075C143326A6913C39
:10471000C4EB98999999C9BF711623FEC671BCBFA5
:104720006D9A74AFF2B0B3BF9AFDDE522DDEADBF0D
:104730002F6C6A2C44B4A2BF0D5555555555D53F25
:10474000FF8300922449C23F6E204CC5CD45B73F40
:10475000513DD0A0660DB13FEB0D76244B7BA93FB8
:1047600011DA22E33AAD903F0000000000000000A3
:104770009047000800000020980100003E08000853
:10478000C047000898010020300600009835000856
:10479000412D010203040405FF06070809114B4DD2
:1047A000060232FA12C81264132C461B084A04018E
:1047B00020AA58245AFF040218010320803F000059
:040000050800018965
:00000001FF
